:020000021000EC
:10B00000C833002035BD010075BD010077BD0100CA
:10B010000000000000000000000000000000000030
:10B0200000000000000000000000000079BD0100E9
:10B0300000000000000000007BBD01007DBD01009C
:10B040006DB801007FBD010009B901007FBD01009D
:10B050007FBD0100000000007FBD01007FBD010039
:10B060007FBD01007FBD01007FBD01007FBD0100EC
:10B070007FBD01007FBD01007FBD01007FBD0100DC
:10B080007FBD010045B201007FBD01007FBD010011
:10B0900021B301007FBD010045BF01007FBD01005C
:10B0A0007FBD01007FBD0100000000000000000026
:10B0B0000000000000000000000000000000000090
:10B0C00010B5064C2378002B07D1054B002B02D07E
:10B0D000044800E000BF0123237010BD3414002099
:10B0E00000000000FCBF0100044B10B5002B03D092
:10B0F0000349044800E000BF10BDC0460000000046
:10B1000038140020FCBF0100164B002B00D1144B5B
:10B110009D46402292029A1A924600218B460F4683
:10B120001348144A121A00F065F80F4B002B00D098
:10B1300098470E4B002B00D09847002000210400B8
:10B140000D000D48002802D00C4800E000BF00F0C0
:10B150002DF82000290000F0A3FC00F011F8C046F3
:10B1600000000800C83300200000000000000000BC
:10B17000341400208C1500200000000000000000A6
:10B18000084B10B50400002B02D0002100E000BFE6
:10B19000054B1868836A002B00D09847200000F008
:10B1A00031F8C04600000000BCBF010070B50026A9
:10B1B0000C4D0D4C641BA410A64209D1002600F0D2
:10B1C000F1FE0A4D0A4C641BA410A64205D170BDC5
:10B1D000B300EB5898470136EEE7B300EB589847B9
:10B1E0000136F2E72C1400202C1400202C1400202F
:10B1F0003014002003001218934200D170471970D8
:10B200000133F9E7FEE7C046002300B585B001AA87
:10B210009060002103481380536000F005F805B0EA
:10B2200000BDC04601400000BFF34F8F034B044AEE
:10B23000DA60BFF34F8FC046FDE7C04600ED00E087
:10B240000400FA05A021F0B50023C6462B4A4900A8
:10B2500000B553500431535004315350043153500E
:10B260004C39535004315350254B1B68002B35D0BB
:10B27000244900265458244A244F1268A41A002254
:10B280002402240A904602E0002D18D02B001A68F0
:10B29000A24214D8A41AB6181A7CDD69002AF3D089
:10B2A000424699691A745A693B68002B1FD01000F6
:10B2B00098470028E8D0FFF7A7FF002DE6D11449F2
:10B2C000144A0B7812789A420BD0134A9B009E5076
:10B2D00080218023114A5B004903D15004BC904671
:10B2E000F0BD0132D3B2022B04D00B70EDE70800A1
:10B2F0009047C9E700230B70E7E7C0460010014004
:10B3000070140020040500006C140020501400206C
:10B3100069140020681400206014002000E100E09F
:10B32000F0B54E46DE4657464546E0B5C74BC84ADF
:10B330001B68C84999460978137889B0994200D1A9
:10B3400076E10133DBB2022B00D15EE11370C24A19
:10B350009B009D584B465B191B02BC4A1B0A059378
:10B36000136001230493BD4B00201E78BC4B3700B3
:10B370001B689A46B94B5B789846B84B5B6801935B
:10B38000B64B9B780293B74B1B781A0007920022AA
:10B39000069393465346009247451DD001997A0083
:10B3A000D2198C4601370299FFB2791A4C1EA1417D
:10B3B000D200494262440F401178022900D19CE03A
:10B3C0000329E9D1002BE7D01874DB69002BFBD1EE
:10B3D000012200924745E1D1009A94465A46002A3C
:10B3E00000D0E8E16246002A00D0E1E19C4B049ADB
:10B3F0001B680593002A00D020E15246D31A5A1E3A
:10B4000093410024DBB20493904B00961B6899464D
:10B41000059B9C46002303939A469846924B6546AB
:10B420009B46002C30D06268A1682000E4694B463E
:10B43000D31A1B021B0A5B4556D85B1803604246B1
:10B4400042608260012202744246C261002D00D136
:10B450008CE02A689A4200D381E0009E290084464D
:10B4600003E00A689A4200D384E00800C9699B1A85
:10B470000029F6D1020060469446009603606346B8
:10B48000C161D861002CCED15246009EB7427BD01C
:10B49000019A73009B1994460136029AF6B2921BE8
:10B4A000511E8A41DB006344197852421640012242
:10B4B0000129EBD15868027C002AE7D192469A68AC
:10B4C00000964260D96881601E69C6605B698361CD
:10B4D000069B002B55D052469A464B46D31A1B0268
:10B4E00042601B0A5B45A8D94B469A1A1202120AFF
:10B4F0008A4228D28B1A0360A1E75468002B00D13E
:10B500004AE79C4200D182E0009A1900944602E08A
:10B51000944206D01100CA69002AF9D1624600920D
:10B520003AE76246039100928C4200D171E02268B2
:10B530000399E469CC61002C00D12DE721688C4689
:10B540006244226028E7434603604360836001232E
:10B5500003744346C361002D08D000232A68D31A20
:10B560002B600123C561039305005AE70123050001
:10B57000039356E700960600D21A60460A60B44666
:10B580007CE701239A4652E7AC46002A00D01EE130
:10B59000039B002B00D016E1314B059A1B689342A8
:10B5A00002D1049A002A24D0002B00D1CCE02F4AEB
:10B5B0002F48304C81584A468A1A12022578120ABE
:10B5C0001B680332002D00D191E093421BD3A824C5
:10B5D0004B4427481B021B0AE400244D03514259E7
:10B5E0005B1A521A1202120A1B0203321B0A9A42F7
:10B5F00063D800231B4A137009B03CBC904699469F
:10B60000A246AB46F0BD1300E1E700239EE61C0016
:10B6100003930122DB690092002B00D087E7012110
:10B62000134A9160002205920132934607927EE709
:10B630004B46059300230025049394E60024002044
:10B64000B44600220021804626002BE06C14002026
:10B650006814002069140020601400205414002095
:10B66000701400205C140020FEFF7F000405000021
:10B67000001001405D1400201868A84200D95CE069
:10B6800042462D1A0918D8681A60DC69002807D0CC
:10B690004A46DE611E0052181202120A5A60986071
:10B6A0002300049A002BE7D134006646002A00D11B
:10B6B000AAE64A4A05931360A6E64359484903514E
:10B6C000484B1A682F23C046C046C046C046C046F5
:10B6D000C046C046C0468A4200D0C046013BF2D1B7
:10B6E00080238021404A5B008902D15081E7802578
:10B6F000D1266D02B6008551403E8551C027802677
:10B70000394DB6027F00EE512E60012505603548A7
:10B71000334F06682F20C046C046C046C046C046CC
:10B72000C046C046C046BE4200D0C0460138F2D135
:10B730002570934200D34AE765E734006646002A45
:10B7400048D1451B1D605FE680208022264980028B
:10B7500088508022D22001252449520280000A50BC
:10B7600040380A501F4A4D6010682F221C4C1600AA
:10B77000C046C046C046C046C046C046C046C04699
:10B78000A04200D0C046013EF2D18D6018490B6046
:10B79000C046C046C046C046C046C046C046C04679
:10B7A000A04200D0C046013AF2D1124A137020E7FD
:10B7B0000A4A13601AE6104A0798059910700C4A55
:10B7C000069011600EE66246044B1A60E4E60B4BED
:10B7D0001F70DDE6014A05931360B2E77014002084
:10B7E0000024F4002814002000E100E000100140D3
:10B7F0006C1400205D1400205C1400205414002000
:10B80000F0B5EFF3108172B60A4B5A68002A0DD1D9
:10B8100001248025084E5C607459084F3C401C6030
:10B8200077510270002900D162B6F0BD0123037088
:10B83000F8E7C0460C15002000E100E0FC06FFBC64
:10B8400010B5084B5A68002A0BD0002809D1EFF335
:10B85000108272B604491C680C605860002A00D13E
:10B8600062B610BD0C15002000E100E010B51A4BC7
:10B870001A68002A14D0002280211A60C2220123F3
:10B88000164CC90592008B506370A368002B07D03B
:10B890001A6800205B68A2609847A368002BF7D164
:10B8A0000F4B1A68002A15D000221A608022C2238A
:10B8B00002219B00D205D1500123084CA3702369BB
:10B8C000002B07D01A6801205B6822619847236922
:10B8D000002BF7D110BDC0460001004074140020B9
:10B8E0000401004010B500280BD1064CA368002BC2
:10B8F00007D01A6800205B68A2609847A368002BF5
:10B90000F7D110BD74140020C12330B5614A9B00EB
:10B91000D35885B09B055ED592235B00D158002992
:10B9200059D00021D1508121E533FF338900D15016
:10B93000594B997E002901D101315160022269469B
:10B940000A7090215348C9004258425069460392F8
:10B95000DA7D68460A72DA68196801920022DA759F
:10B960001A765B6898478E214A4A49005358002B43
:10B9700012D0494B9C8A987D844257D3002454505E
:10B98000002809D06A46107214709A689C7519686C
:10B9900001925B6868469847A2233E4A5B00D158F3
:10B9A000002916D00021D1503B4B997E002901D0AF
:10B9B00001211160DA7D002A0BD0002268460121A6
:10B9C000DA755A7E01700272DA68196801925B6852
:10B9D000984705B030BDC1232E4A9B00D3585B0762
:10B9E000C1D5842149005358002BBCD02A4BD87DA7
:10B9F000002827D15050A321C90052585A7E8242B4
:10BA0000B1D11A7E1968002A2AD0DA751A69D86865
:10BA1000DA6000226D465C7E1A765A760132019019
:10BA20002A702C725B68684698479CE7002050504B
:10BA3000998A9868405C998A013189B29982174B3A
:10BA4000D050A9E700205050A320C000597E1258C2
:10BA5000D86842545A7ED87D0132D2B25A76CDE7A8
:10BA60009A7E002A02D101200A4A5060C222812413
:10BA700008489200A400845000226C460120DA7528
:10BA80005A7E20702272DA68684601925B68984795
:10BA900069E7C04600200040881400201C05000013
:10BAA000F0B5C6461F4900B5002000F049F8A020B7
:10BAB00000230321C0051A00C132FF329200013376
:10BAC0001150202BF7D1184BA024A1259846174FD1
:10BAD000174EE405ED00A3591648DA43D20FD207FA
:10BAE0006251DB0F144ADB07A35043461968134B1E
:10BAF000C046C046C046C046C046C046C046C04616
:10BB0000814200D0C046013BF2D101231800A15967
:10BB100088430B4060513900A350002000F010F81A
:10BB2000D9E7C046C0BF010028140020D0BF0100E3
:10BB3000040500000024F4000C05000020A107000B
:10BB4000F0B5DE46574645464E46E0B5040083B0A4
:10BB500008008B4600F01FFA704B824698461B780F
:10BB6000002B20D14146022240460A614A616C4ABC
:10BB700083628A6182646B496B4AC161C2644021FD
:10BB800010224362C362836502654365C365016237
:10BB90006649073000F0F7F96549404600F0F3F9CF
:10BBA0002023424693716A460023D01C0193D37030
:10BBB000FFF726FE63001D19ED004544EF6A012FD3
:10BBC00069D0002F41D0022F2AD1013463001C1903
:10BBD000E300002799466E6AAB6A2C6AB34200D82C
:10BBE000E318013B9B1BA41B544500D954469C42BF
:10BBF00000D91C0043464B4458685946801922001E
:10BC000000F0B8F953461B1B9A462B6A36193F19A8
:10BC1000A3449E4212D053466E62002BDCD100E05A
:10BC20000027019B6B46D878FFF70AFE380003B067
:10BC30003CBC90469946A246AB46F0BD00236B62E1
:10BC40005346002BEDD00026C6E7AA6A696A8A42ED
:10BC50004ED9013A521A9245E3D81D19ED004544D8
:10BC60006F6A2B6ADE1B631C5C00E418E40044442A
:10BC70006068C019B24548D33200594600F07AF9DD
:10BC8000534631009F1B3A005944606800F072F936
:10BC90006F625746C5E7AA6A696A2E6A8A4223D943
:10BCA000013A521A5746974200D917001D19ED0064
:10BCB00045446B6A9A46F61A631C5C00E418E4007B
:10BCC000444460685044B74217D33200594600F0EC
:10BCD00051F9BB1B310098461A005944606800F0C6
:10BCE00049F943466B629CE7B218013A521AD9E708
:10BCF000286A1218013A521AADE73A00594600F084
:10BD000039F95346F81868628BE75744524659464A
:10BD100000F030F96F62574683E7C04614150020E3
:10BD2000E4BF0100B4140020A4140020F0BF0100FF
:10BD3000F4BF010003210A4802680A43026009486F
:10BD400002680A4302600849084A094B9B1A03DD4E
:10BD5000043BC858D050FBDC00F012F8FFF7D4F9D0
:10BD6000240500405405004008C00100C81300200D
:10BD700034140020FEE7FEE7FEE7FEE7FEE7FEE7FD
:10BD80002E4B1B78012B00D070472D4B1B681B07D7
:10BD9000FAD1F0222B4B1B68134027D12A4B1B688A
:10BDA00013422BD0264B1B681B07EDD1F022254BED
:10BDB0001B681340402B2DD0F022224B1B681340F0
:10BDC000A02B01D0D02BDFD1F0231F4A12681A42DA
:10BDD000DAD11E4A1368012B04D01D4B136013687F
:10BDE000012BFCD1C0221B4B1A60CDE7102B01D0D8
:10BDF000302BDBD1144B1B681342D7D1164B174A9B
:10BE00001A608022164B12021A600C4B1B78012B11
:10BE1000C8D0B9E70C4B1B681342CDD18022C12397
:10BE20000121DB00D205D150044B1B78012BABD193
:10BE3000034B1B681B07BFD0A6E7C046E00F00F00E
:10BE4000E40F00F0E80F00F0EC0F00F000EC06400B
:10BE50007593000014EC064004050040DFFF07C0A6
:10BE6000186C004052DF704761DF7047F0B55746ED
:10BE70004E464546DE46E0B52D4B2E4E1D68994692
:10BE80006B425D412C4B2D4F98462D4B83B09A460B
:10BE9000EDB23478E4B2002C26D101A8FFF7E2FF1E
:10BEA000052835D0002826D0FFF7AEF9002D2DD17A
:10BEB0003578EDB2002D17D143466A461B8801A99B
:10BEC00093803B6818009B46FFF7CEFF052823D0E0
:10BED000002824D14B4658461B689847002CD8D0E0
:10BEE00033780124002BE7D003B03CBC9046994640
:10BEF000A246AB46F0BD0198FFF7F4FC53461B6821
:10BF0000002B11D001989847002DD1D00125C0E712
:10BF1000002DE9D10124CBE7002CF7D0E4E7FFF7AF
:10BF200073F9002CDCD1B4E7002DC1D00125B0E7B6
:10BF3000F814002001150020F4140020081500203A
:10BF40000415002010B5094B1B68002B06D098473C
:10BF5000002800D110BDFFF757F9FBE7044B1B7811
:10BF6000002BF7D0FFF782FFF4E7C046FC14002057
:10BF700000150020002310B59A4200D110BDCC5C02
:10BF8000C4540133F8E703000A7801311A70013311
:10BF9000002AF9D170470023C25C0133002AFBD18B
:10BFA000581E7047F8B5C046F8BC08BC9E4670479E
:10BFB000F8B5C046F8BC08BC9E467047C8130020C0
:10BFC00048656C6C6F2C20776F726C64210A0000DE
:10BFD0002420626C696E6720626C696E6720242180
:10BFE0000A0000005465726D696E616C000000000B
:10BFF000525454005345474745520000000000008A
:08C0000008F1FF7F01000000C0
:10C008000000000000000000000000000000000028
:10C018000000000000000000000000000000000018
:10C028000000000000000000000000000000000008
:10C0380000000000000000000000000000000000F8
:10C0480000000000000000000000000000000000E8
:10C0580000000000000000000000000000000000D8
:0CC068000024F400E9B00100C1B00100A8
:040000031000BD35F7
:00000001FF
